:040000008BEF00F092
:100008004C82FACF06F0FBCF07F0E9CF08F0EACF31
:1000180009F0E1CF0AF0E2CF0BF0D9CF0CF0DACF3C
:100028000DF0F3CF0EF0F4CF0FF0F6CF10F0F7CFBE
:1000380011F0F8CF12F0F5CF13F0F2BC9DAC05D05B
:100048009EAC03D09AEC14F044D0F2BCA0A605D024
:10005800A1A603D018EC15F03CD0F2BC9DA605D0A3
:100068009EA603D088EC04F034D0F0BAF0A403D0F4
:10007800D2EC14F02ED0F2BCA3A805D0A4A803D0CB
:10008800DDEC12F026D0F2BCA3AA05D0A4AA03D0B6
:100098009AEC13F01ED0F2BC9DA805D09EA803D000
:1000A800F6EC12F016D0F2BC9DAA05D09EAA03D099
:1000B800B0EC13F00ED0F2BCA0A205D0A1A203D0E0
:1000C80027EC13F006D0F2BC9DA003D09EB03FEC05
:1000D80013F013C0F5FF12C0F8FF11C0F7FF10C0EE
:1000E800F6FF0FC0F4FF0EC0F3FF0DC0DAFF0CC01F
:1000F800D9FF0BC0E2FF0AC0E1FF09C0EAFF08C050
:10010800E9FF07C0FBFF06C0FAFF4C92110030EF71
:100118000DF0620E0001686F000E0001696F58D182
:10012800250E00016D19D8B405D000016D51FFEC02
:1001380014F04ED1000E00016A6F4AD000016A8F98
:1001480066D068C0D9FF69C0DAFFDECF66F0DDCFC0
:1001580067F0020E00016827000E6923000166514E
:1001680000016711D8A41CD0BA0E0001666F7F0E7B
:100178000001676F15D066C0F6FF67C0F7FFF86A21
:100188000E0EF76403D00800F55005D0F6CFE9FF4E
:10019800F7CFEAFFEF50FFEC14F00001664B672B36
:1001A80066C0F6FF67C0F7FFF86A0E0EF76403D063
:1001B8000800F55005D0F6CFE9FFF7CFEAFFEF507A
:1001C8000009D8B405D1D7D7C00E00016A131FD0D3
:1001D80060C0F6FF61C0F7FF0001604B612B0800AB
:1001E800F5CF6DF000016D51000AD8B41200640A11
:1001F800D8B40DD00D0AD8B40AD01A0AD8B4A1D7E9
:10020800060AD8B4E1D70D0AD8B498D7E1D06AC0A5
:1002180020F0C00E2016D8A419D068C0D9FF69C034
:10022800DAFFDECF6BF0DDCF6CF0020E000168273D
:10023800000E692300016CAF53D0030E00016A134E
:1002480000016B6D6C1FD8B06C2B4AD068C0D9FF09
:1002580069C0DAFFDECF6BF0DDCF6CF0020E000173
:100268006827000E69233CD0010E00016D6F050E52
:1002780000016D19D8B440D000016D51020D630E14
:10028800F324F66E7B0EF420F76E0900F55000019A
:100298006B5D0900F55000016C59D8A02DD0000104
:1002A8006D2BE5D7010E00016D6F040E00016D196D
:1002B800D8B422D000016D51020D6D0EF324F66EF4
:1002C8007B0EF420F76E0900F55000016B5D090004
:1002D800F55000016C59D8A00FD000016D2BE5D75F
:1002E80000016A51C00B000AD8B4BED7800AD8B43E
:1002F800D9D7400AD8B4B8D76AC020F0030E201660
:10030800D8B403D02D0EFFEC14F06DC065F05AD0B0
:1003180000016551020D630EF324F66E7B0EF42086
:10032800F76E0900F5CF16F00A00F5CF17F06BC08D
:1003380014F06CC015F051EC0FF014C01BF015C090
:100348001CF0000E1E6E0A0E1D6E0EEC11F01B50F6
:10035800300F00016D6F32D06BC014F06CC015F017
:1003680000016551020D6D0EF324F66E7B0EF4202C
:10037800F76E0900F5CF16F00A00F5CF17F051EC2B
:100388000FF014500F0B0001646F00016451010D50
:10039800120EF324F66E7F0EF420F76E0800F5CFE8
:1003A8006DF00CD000016A51C00B000AD8B4B0D768
:1003B800800AD8B4D1D7400AD8B4AAD700016D5161
:1003C800FFEC14F00001650700016529D8A4EAD7FD
:1003D80060C0F6FF61C0F7FF0001604B612B0800A9
:1003E800F5CF6DF000016D51D8B4120099D6898C03
:1003F800040E0001676F3E0EE82EFED7672FFCD76C
:10040800040E0001676F3E0EE82EFED7672FFCD75B
:10041800000E1D6E000E1E6E180EF5EC0EF0010E8D
:100428001D6E010E1E6E180EF5EC0EF0040E1D6EFC
:10043800070E1E6E180EF5EC0EF0050E1D6E180E4A
:100448001E6E180EF5EC0EF0060E1D6E070E1E6ED3
:10045800180EF5EC0EF0070E1D6E000E1E6E180E2F
:10046800F5EC0EF0050E1D6E980E1E6E180EF5ECCE
:100478000EF00B0E1D6E820E1E6E180EF5EC0EF0B1
:100488000C0E1D6E870E1E6E180EF5EC0EF00D0E7E
:100498001D6E000E1E6E180EF5EC0EF00E0E1D6E83
:1004A800800E1E6E180EF5EC0EF01B0E1D6E000E63
:1004B8001E6E180EF5EC0EF03C0E1D6E020E1E6E32
:1004C800180EF5EC0EF0190E1D6E030E1E6E180EAA
:1004D800F5EC0EF01A0E1D6E000E1E6E180EF5ECE1
:1004E8000EF0340E1D6E040E1E6E180EF5EC0EF096
:1004F800000E1D6E010E1E6E180EF5EC0EF0010EAC
:100508001D6E100E1E6E180EF5EC0EF0020E1D6E0E
:10051800000E1E6E180EF5EC0EF0090E1D6E000E84
:100528001E6E180EF5EC0EF00A0E1D6E000E1E6EF5
:10053800180EF5EC0EF00B0E1D6E000E1E6E180E4A
:10054800F5EC0EF00C0E1D6E000E1E6E180EF5EC7E
:100558000EF0100E1D6E400E1E6E180EF5EC0EF00D
:10056800140E1D6E020E1E6E180EF5EC0EF0160E11
:100578001D6E6C0E1E6E180EF5EC0EF02D0E1D6E17
:10058800020E1E6E180EF5EC0EF02E0E1D6E140ED9
:100598001E6E180EF5EC0EF0300E1D6E200E1E6E3F
:1005A800180EF5EC0EF0040E0001676F3E0EE82EF3
:1005B800FED7672FFCD7040E0001676F3E0EE82EAA
:1005C800FED7672FFCD7040E0001676F3E0EE82E9A
:1005D800FED7672FFCD7040E0001676F3E0EE82E8A
:1005E800FED7672FFCD7040E0001676F3E0EE82E7A
:1005F800FED7672FFCD7040E0001676F3E0EE82E6A
:10060800FED7672FFCD7040E0001676F3E0EE82E59
:10061800FED7672FFCD7040E0001676F3E0EE82E49
:10062800FED7672FFCD7040E0001676F3E0EE82E39
:10063800FED7672FFCD7040E0001676F3E0EE82E29
:10064800FED7672FFCD7000E1D6E000E1E6E180E0B
:10065800F5EC0EF03F0E1D6EB00E1E6E180EF5EC8A
:100668000EF0400E1D6E040E1E6E180EF5EC0EF008
:10067800410E1D6E000E1E6E180EF5EC0EF01200E7
:10068800E5C1A4F0E6C1A5F0000E0001A86F000EB8
:100698000001A36FEB0E0001606F7F0E0001616F18
:1006A8008DEC00F07E0E0001606F7C0E0001616F22
:1006B8008DEC00F0EE0E0001606F7B0E0001616FA3
:1006C8008DEC00F06E0E0001606F7F0E0001616F0F
:1006D8008DEC00F01DD0A9EC12F000016E6F000146
:1006E800A851010D930EF324D96E000EF420DA6E92
:1006F8006EC0DFFF0001A851010D930EF324D96EDF
:10070800000EF420DA6EDF506FEC11F00001A82B18
:10071800FF0E00016E6FFF0E00016F6F0001A85100
:100728000001706F716B00016E51000170270001AC
:100738006F5100017123930E00017025D96E000ED0
:1007480000017121DA6E0A0EDE18D8B41FD0FF0E30
:1007580000016E6FFF0E00016F6F0001A8510001CC
:10076800706F716B00016E510001702700016F51AD
:1007780000017123930E00017025D96E000E00014F
:100788007121DA6E0D0EDE18D8A4A5D7FF0E000170
:100798006E6FFF0E00016F6F0001A8510001706FAE
:1007A800716B00016E510001702700016F5100014B
:1007B8007123930E00017025D96E000E000171217E
:1007C800DA6E000EDF6E04D0A9EC12F00001A36F00
:1007D8003550D8A4F9D7930E0001606F000E0001C0
:1007E800616FA40E0001626F000E0001636F9FEC41
:1007F8000AF060C0A6F061C0A7F0980E0001606F13
:100808007F0E0001616FA6C062F0A7C063F08DEC97
:1008180000F0730E146E000E156EA6C016F0A7C079
:1008280017F0A9EC10F0000E0001606F000E000137
:10083800616FA40E0001626F000E0001636F9FECF0
:100848000AF060C0A6F061C0A7F0830E0001606FD7
:100858007F0E0001616FA6C062F0A7C063F08DEC47
:1008680000F0830E146E000E156EA6C016F0A7C019
:1008780017F0A9EC10F0730E146E000E156EE60E4C
:10088800166E7F0E176E63EC10F014501510D8A476
:1008980012D0830E146E000E156EF30E166E7F0EB8
:1008A800176E63EC10F014501510D8A402D08B808A
:1008B80012008B901200730E146E000E156EEF0E60
:1008C800166E7F0E176E63EC10F014501510D8A436
:1008D80012D0830E146E000E156EF30E166E7F0E78
:1008E800176E63EC10F014501510D8A402D08B8248
:1008F80012008B921200160E0001606F7E0E00012E
:10090800616F8DEC00F012009E96C6AE14D1C69EA3
:10091800000E3F6E000120EE03F0B251D926B3510C
:10092800DA22DECF04F0DDCF05F004C0D9FF05C020
:10093800DAFF010EDF6E000E0001B26F000E00013B
:10094800B36F12000001AFB31200ADC0B2F0AEC079
:10095800B3F0ADC0D9FFAEC0DAFFDF50406E000182
:1009680020EE01F0AD51D926AE51DA22DECFB4F037
:10097800DDCFB5F0050E0001AD27000EAE23D10E78
:100988000001AD190BE1010E0001AE19D8A406D083
:10099800CC0E0001AD6F010E0001AE6F0001AF91EA
:1009A8000001AB510001AD1908E10001AC51000193
:1009B800AE19D8A402D00001AF83C580020E3F6EE5
:1009C8001200C582020E3F6E1200C5AC06D00001AF
:1009D800B12B040E2FEC11F01200D8904230056EA6
:1009E8004130046E0450C96E41A003D00B0E3F6E17
:1009F8001200030E3F6E1200C5AC06D00001B12BE9
:100A0800040E2FEC11F01200C58241C004F042C060
:100A180005F005C004F0056A060E0416000E05165A
:100A2800F00E0410416E0550426E4180010E256E95
:100A3800020E3F6E12002504D8B41CD0B4C0D9FFF2
:100A4800B5C0DAFFDECF41F0DDCF42F0000120EE85
:100A580003F0B451D926B551DA22DECF40F1DDCF0B
:100A680041F1000120EE02F0B451D926B551DA2245
:100A7800DF50266E41C0C9FF41A003D0050E3F6E6E
:100A88001200030E3F6E1200C5AC07D00001B12B57
:100A9800C59C050E2FEC11F0120026062628D8A4B6
:100AA8000FD0050E0001B427000EB523402E04D048
:100AB800000E2FEC11F01200C582020E3F6E1200DC
:100AC80040C1D9FF41C1DAFFDF50C96E0101404B77
:100AD800412B1200C5AC07D00001B12B040E2FEC3E
:100AE80011F0C59C1200C586080E3F6E1200080E54
:100AF8003F6EC586120040C1D9FF41C1DAFFC9CF98
:100B0800DFFF0101404B412B010E265ED8B404D013
:100B1800C59A060E3F6E03D0C58A81EC14F0C588CD
:100B28001200000E2FEC11F012000001B12B060E7E
:100B38002FEC11F012003F50000AD8B403D7010A75
:100B4800D8B43FD7030AD8B476D7010AD8B49CD70B
:100B5800070AD8B4E6D7010AD8B4BCD7030AD8B470
:100B6800C6D7010AD8B4DDD70F0AD8B4C4D7020A49
:100B7800D8B42BD7010AD8B43FD7D7D7000E000175
:100B8800706F200E0001606F7D0E0001616F8DECAB
:100B980000F0750E0001606F7B0E0001616F8DEC37
:100BA80000F0FF0E0001606F7E0E0001616F8DEC9A
:100BB80000F07B0E0001606F7D0E0001616F8DEC0F
:100BC80000F05E0E0001606F7D0E0001616F8DEC1C
:100BD80000F0D40E0001606F7C0E0001616F8DEC97
:100BE80000F0FC0E0001606F7C0E0001616F8DEC5F
:100BF80000F0420E146E010E156EEE0E166E7F0E8C
:100C0800176EA9EC10F0C5D06C0E0001606F7F0E56
:100C18000001616F8DEC00F0420E206E010E216E16
:100C2800B5EC08F00001BB6F520E1A6E010E1B6E78
:100C380008EC0BF01A5000016E6F620E1A6E010E6E
:100C48001B6E08EC0BF01A5000016F6F420E146E09
:100C5800010E156EDC0E166E7F0E176E63EC10F02B
:100C680014501510D8B41200420E146E010E156EF1
:100C7800CF0E166E7F0E176E63EC10F01450151021
:100C8800D8A41CD0DAEC14F00009D8B4FBD76E0E47
:100C98000001606F000E0001616F020E0001626FBB
:100CA800000E0001646F360E636F470E0001656F1A
:100CB800000E0001666FF2EC0FF06BD0420E146E5E
:100CC800010E156EE10E166E7F0E176E63EC10F0B6
:100CD80014501510D8A45DD0520E146E010E156E66
:100CE800B20E166E7F0E176E63EC10F014501510CE
:100CF800D8A411D067EC14F00001706F440E000105
:100D0800606F7E0E0001616F70C062F00001636B5E
:100D18008DEC00F03ED0520E146E010E156E730E5F
:100D2800166E7D0E176E63EC10F014501510D8A4D3
:100D380019D05AEC14F00001706F700E0001606F4A
:100D48007E0E0001616F70C062F00001636B8DEC74
:100D580000F0200E0001606F7C0E0001616F8DECC9
:100D680000F017D0520E1A6E010E1B6E08EC0BF035
:100D78001A502EEC14F00001706F2D0E0001606FF8
:100D88007E0E0001616F70C062F00001636B8DEC34
:100D980000F0420E146E010E156EDC0E166E7F0EFC
:100DA800176E63EC10F014501510D8B412002CD73D
:100DB800E70E0001606F7D0E0001616F8DEC00F0A1
:100DC800850E0001606F7E0E0001616F8DEC00F0F2
:100DD8009A0E0001606F7E0E0001616F8DEC00F0CD
:100DE8008E0E0001606F7F0E0001616F8DEC00F0C8
:100DF800C30E0001606F7E0E0001616F8DEC00F084
:100E0800D70E0001606F7E0E0001616F8DEC00F05F
:100E1800D50E0001606F7F0E0001616F8DEC00F050
:100E2800DB0E0001606F7F0E0001616F8DEC00F03A
:100E3800420E146E010E156EEE0E166E7F0E176EB4
:100E4800A9EC10F09ED06C0E0001606F7F0E0001BF
:100E5800616F8DEC00F0420E206E010E216EB5EC34
:100E680008F00001BB6F420E146E010E156EDC0E09
:100E7800166E7F0E176E63EC10F014501510D8B470
:100E88001200420E146E010E156EF80E166E7F0ECD
:100E9800176E63EC10F014501510D8A40AD0520E37
:100EA8001A6E010E1B6E08EC0BF01A50FEEC13F0D4
:100EB80068D0420E146E010E156EF60E166E7F0E79
:100EC800176E63EC10F014501510D8A40AD0520E07
:100ED8001A6E010E1B6E08EC0BF01A50ECEC13F0B6
:100EE80050D0420E146E010E156EFA0E166E7F0E5D
:100EF800176E63EC10F014501510D8A40DD0520ED4
:100F08001A6E010E1B6E08EC0BF01AC021F01BC004
:100F180022F084EC13F035D0420E146E010E156EDB
:100F2800FC0E166E7F0E176E63EC10F01450151041
:100F3800D8A40DD0520E1A6E010E1B6E08EC0BF0E1
:100F48001AC021F01BC022F06EEC13F01AD0420E2A
:100F5800146E010E156ED60E166E7F0E176E63ECAC
:100F680010F014501510D8A40CD0E3C16EF0E4C1F1
:100F78006FF06E0E156E000E166E020E176EC3EC35
:100F880012F0420E146E010E156EDC0E166E7F0EF8
:100F9800176E63EC10F014501510D8B4120053D724
:100FA800200E0001606F7D0E0001616F8DEC00F076
:100FB800750E0001606F7B0E0001616F8DEC00F013
:100FC800FF0E0001606F7E0E0001616F8DEC00F076
:100FD800B40E0001606F7B0E0001616F8DEC00F0B4
:100FE800D40E0001606F7C0E0001616F8DEC00F083
:100FF800FC0E0001606F7C0E0001616F8DEC00F04B
:10100800420E146E010E156EEE0E166E7F0E176EE2
:10101800A9EC10F097D06C0E0001606F7F0E0001F4
:10102800616F8DEC00F0420E206E010E216EB5EC62
:1010380008F00001BB6F520E1A6E010E1B6E08EC11
:101048000BF01A5000016E6F620E1A6E010E1B6EC5
:1010580008EC0BF01A5000016F6F420E146E010E6F
:10106800156EDC0E166E7F0E176E63EC10F01450C2
:101078001510D8B41200420E146E010E156EE30E50
:10108800166E7B0E176E63EC10F014501510D8A472
:1010980003D0FBEC01F056D0420E146E010E156E13
:1010A800CF0E166E7F0E176E63EC10F014501510ED
:1010B800D8A41CD0DAEC14F00009D8B4FBD76E0E13
:1010C8000001606F000E0001616F020E0001626F87
:1010D800000E0001646F180E636F470E0001656F04
:1010E800000E0001666FF2EC0FF02CD0420E146E69
:1010F800010E156EE10E166E7F0E176E63EC10F082
:1011080014501510D8B41ED0420E146E010E156E70
:10111800C10E166E7F0E176E63EC10F0145015108A
:10112800D8A402D0898C0ED0420E146E010E156E12
:10113800AA0E166E7F0E176E63EC10F01450151081
:10114800D8B4899C420E146E010E156EDC0E166E14
:101158007F0E176E63EC10F014501510D8B41200FF
:101168005AD7D1C180F2D2C181F2D3C182F2D4C19F
:1011780083F2000E0201886F000E0201876F000ED5
:101188000201846F11D0CAEC14F00001646F0201EF
:101198008851010D000EF324D96E020EF420DA6E88
:1011A80064C0DFFF0201882BFF0E0001646FFF0E91
:1011B8000001656F020188510001666F676B0001CD
:1011C8006451000166270001655100016723000E84
:1011D80000016625D96E020E00016721DA6E0A0E3B
:1011E800DE18D8B41FD0FF0E0001646FFF0E000197
:1011F800656F020188510001666F676B00016451D9
:10120800000166270001655100016723000E0001F7
:101218006625D96E020E00016721DA6E0D0EDE1802
:10122800D8A4B1D7FF0E0001646FFF0E0001656FEF
:10123800020188510001666F676B0001645100016B
:1012480066270001655100016723000E000166252D
:10125800D96E020E00016721DA6E000EDF6E04D02F
:10126800A9EC12F00201846F3550D8A4F9D7000E0A
:101278000001606F020E0001616F800E0001626F55
:10128800020E0001636F9FEC0AF01FD00201875124
:10129800100DF3502024146EF4502120156E85C2D1
:1012A80016F086C217F0A9EC10F00201872B000E89
:1012B8000001606F000E0001616F800E0001626F17
:1012C800020E0001636F9FEC0AF060C085F261C0F6
:1012D80086F20201855102018611D8A4D7D70201EE
:1012E80087511200000E0001A96F8CD0500E00012A
:1012F800606F7C0E0001616F8DEC00F0340E000110
:10130800606F7F0E0001616F8DEC00F0B30E00017D
:10131800606F7D0E0001616F8DEC00F0980E00018A
:10132800606F7D0E0001616F8DEC00F0A20E000170
:10133800606F7F0E0001616F8DEC00F0AF0E000151
:10134800606F7E0E0001616F8DEC00F05A0E000197
:10135800606F7E0E0001616F8DEC00F0780E000169
:10136800606F7F0E0001616F8DEC00F05F0E000171
:10137800606F7F0E0001616F8DEC00F0A9EC12F038
:101388000001A96F0001A9516FEC11F020D044ECC5
:1013980003F038D0D4EC07F035D0C2EC05F011ECEE
:1013A8000AF0DCEC06F0E4EC0CF0CD0E0001606F06
:1013B8007D0E0001616F8DEC00F024D0FF0E00015E
:1013C800606F7D0E0001616F8DEC00F01BD0000195
:1013D800A951310AD8B4DBD7030AD8B4DBD7010A3C
:1013E800D8B4DBD7070AD8B4DAD7010AD8B4D9D722
:1013F800030AD8B4D8D76E0AD8B4D7D7200AD8B435
:10140800D4D7DCD7780E0001A919D8B41200580E29
:101418000001A919D8B4120069D7EB0E0001606F5A
:101428007E0E0001616F8DEC00F0FF0E0001606F11
:101438007E0E0001616F8DEC00F0400E0001606FC0
:101448007D0E0001616F8DEC00F0420E146E010EEE
:10145800156EEE0E166E7F0E176EA9EC10F05CD0AE
:101468006C0E0001606F7F0E0001616F8DEC00F063
:10147800420E206E010E216EB5EC08F00001BB6F24
:10148800420E146E010E156EDC0E166E7F0E176E70
:1014980063EC10F014501510D8B41200420E146EFC
:1014A800010E156EE10E166E7F0E176E63EC10F0CE
:1014B80014501510D8A40DD0230E0001606F7F0EB4
:1014C8000001616F27C062F00001636B8DEC00F0D2
:1014D80023D0420E146E010E156EC80E166E7F0EC6
:1014E800176E63EC10F014501510D8B412D014D045
:1014F8002804D8A40ED0000E286E230E0001606FB9
:101508007F0E0001616F27C062F00001636B8DECF4
:1015180000F03550D8B4ECD7420E146E010E156E9B
:10152800DC0E166E7F0E176E63EC10F0145015105B
:10153800D8B4120095D70001605100016111D8A4F8
:1015480004D0B6C060F0B7C061F00001605100017E
:101558006111D8A407D0000E0001606F000E0001D1
:10156800616F120060C019F061C01AF062C01BF010
:1015780063C01CF07AEC0FF01950000160271A5074
:101588000001612360C0D9FF61C0DAFFDF50D8A431
:101598000BD0000E0001B66F000E0001B76FB6C089
:1015A80060F0B7C061F0120060C019F061C01AF0B5
:1015B80062C01BF063C01CF0A2EC0FF019500001D0
:1015C80060250001B66F1A50000161210001B76F54
:1015D800B6C0D9FFB7C0DAFFDF50D8B40AD0B6C05A
:1015E800D9FFB7C0DAFF000EDF6E0001B64BB72B8C
:1015F80006D0000E0001B66F000E0001B76F60C084
:1016080060F061C061F0120002D01A4A1B2A1AC0A9
:10161800D9FF1BC0DAFF200EDE18D8B4F6D71AC0DF
:10162800D9FF1BC0DAFF090EDE18D8B4EED7000EBA
:10163800206E000E1F6E000E1E6E1AC0D9FF1BC052
:10164800DAFF2D0EDE18D8A402D01E2A24D01AC024
:10165800D9FF1BC0DAFF2B0EDE18D8A41ED01BD072
:101668001FC014F020C015F0000E176E0A0E166E7B
:10167800C6EC13F01AC0D9FF1BC0DAFFDF501C6E8E
:101688001D6A14501C2615501D22D00E1C241F6ED6
:10169800FF0E1D20206E1A4A1B2A1AC0D9FF1BC034
:1016A800DAFFDF503DEC14F0D8B0DAD71E50D8B4CA
:1016B8000DD01FC01CF020C01DF01C1E1D1E1C4A92
:1016C8001D2A1CC01AF01DC01BF012001FC01AF002
:1016D80020C01BF012000001676F00016705D8A445
:1016E8002DD0010E2E6E000E1D6E010E1E6E180EF0
:1016F800F5EC0EF0090E1D6E200E1E6E180EF5ECA0
:101708000EF00C0E1D6E080E1E6E180EF5EC0EF087
:10171800100E1D6E0C0E1E6E180EF5EC0EF02D0E32
:101728001D6E000E1E6E180EF5EC0EF0000E1D6EEE
:10173800000E1E6E180EF5EC0EF01200000E2E6E46
:10174800000E1D6E010E1E6E180EF5EC0EF02D0E1D
:101758001D6E020E1E6E180EF5EC0EF0090E1D6EB3
:10176800000E1E6E180EF5EC0EF00C0E1D6E000E1F
:101778001E6E180EF5EC0EF0100E1D6E400E1E6E4D
:10178800180EF5EC0EF0000E1D6E000E1E6E180EF3
:10179800F5EC0EF01200196E0001AFB146D016C07C
:1017A800D9FF17C0DAFF020EDF6E000120EE01F04C
:1017B800AB51D926AC51DA2214C0DEFF15C0DDFFCB
:1017C800ABC0D9FFACC0DAFF19C0DFFF000120EEC3
:1017D80003F0AB51D926AC51DA2216C0DEFF17C090
:1017E800DDFF050E0001AB27000EAC23D10E000172
:1017F800AB190BE1010E0001AC19D8A406D0CC0E30
:101808000001AB6F010E0001AC6F0001AF93000146
:10181800AB510001AD190FE10001AC510001AE1947
:10182800D8A409D00001AF8106D016C0D9FF17C0CF
:10183800DAFF010EDF6E16C0D9FF17C0DAFF020EFD
:10184800DE18D8A412003F50D8A4FDD79E861200F7
:1018580023EC12F0F28EF28C89840F015B89948854
:10186800010E0101F56F0AD0640E346407D0650ECD
:10187800346E000E0101F56F4EEC0EF082A8F4D71D
:10188800000E0101F56F07EC12F0FBEC01F081A0EE
:1018980005D0010E2E6E010E6FEC0BF067EC14F004
:1018A800466E000E74EC14F02850D8B4FDD7000E24
:1018B800286E27C030F016EC15F0275024EC0FF0F6
:1018C80043C021F044C022F0E9EC11F00F015D990A
:1018D800928A928E3550D8B406D0A9EC12F0440AF8
:1018E800D8B476EC09F08BEC0EF050EC11F0C3ECA8
:1018F8000EF079EC0DF03EEC10F0EDEC10F01FEC72
:1019080014F009EC0EF0E6D71E6E000E226E1DC014
:101918001FF023D01F0E0001606F000E0001616FE1
:10192800010E0001626F1EC063F00001646B470E78
:101938000001656F000E0001666FF2EC0FF0020EF9
:101948004718D8B4FCD74750D8B40AD0190E201875
:101958002110D8B405D0204A212A4704D8A4DAD7C0
:101968004750D8A42BD0000E216E000E206E23D035
:10197800220E0001606F000E0001616F010E000170
:10198800626F1EC063F00001646B470E0001656F53
:10199800000E0001666F18EC10F0020E4718D8B45C
:1019A800FCD74750D8B40AD0190E20182110D8B443
:1019B80005D0204A212A4704D8A4DAD72250120099
:1019C800420E146E010E156EEE0E166E7F0E176E19
:1019D800A9EC10F032D0AB0E0001606F7C0E000154
:1019E800616F8DEC00F0440E0001606F7F0E000106
:1019F800616F8DEC00F0420E206E010E216EB5EC89
:101A080008F00001BB6F420E146E010E156EDC0E5D
:101A1800166E7F0E176E63EC10F014501510D8B4C4
:101A28001200420E1A6E010E1B6E08EC0BF01AC063
:101A380021F01BC022F0E9EC11F0420E146E010EE9
:101A4800156EDC0E166E7F0E176E63EC10F01450D8
:101A58001510D8B41200BFD71C0EF66E290EF76EFB
:101A6800000EF86E01EED1F010EE18F00900F5CF77
:101A7800EEFFE550E150FAE1100EF66E2A0EF76E11
:101A8800000EF86E00EEBCF010EE06F00900F5CF7F
:101A9800EEFFE550E150FAE1160EF66E2A0EF76EEB
:101AA800000EF86E00EE43F010EE05F00900F5CFD9
:101AB800EEFFE550E150FAE101EE00F0D10EEE6ADA
:101AC800E806FDE100EEABF0110EEE6AE806FDE176
:101AD80000EE23F0200EEE6AE806FDE14C904C92F1
:101AE800000EF86E00012CEF0CF081B61200270EE4
:101AF800246E100E236E2306D8A024062328FBE1AB
:101B08002428D8A4F8D781B612008B80899C8986AE
:101B1800010E336E938E0F015B9F000E246E000E34
:101B28000ED0234A242A040E146E3E0EE82EFED749
:101B3800142EFCD781BE04D0130E246E890E236E9A
:101B4800D00E235C070E2458D8A0EBD7000E246EC5
:101B5800640E236E07D0040E146E3E0EE82EFED7D8
:101B6800142EFCD72306D8A024062328F4E1242821
:101B7800D8A4F1D789940300120081B61200270E69
:101B8800246E100E236E2306D8A024062328FBE11A
:101B98002428D8A4F8D781B612008B80899C89861E
:101BA800010E336E938E0F015B9F000E246E000EA4
:101BB8000ED0234A242A040E016E3E0EE82EFED7CC
:101BC800012EFCD781BE04D0130E246E890E236E1D
:101BD800D00E235C070E2458D8A0EBD7000E246E35
:101BE800640E236E07D0040E016E3E0EE82EFED75B
:101BF800012EFCD72306D8A024062328F4E12428A4
:101C0800D8A4F1D78994030012003204D8A4120092
:101C180080BE1FD0010E4324436E000E4420446E44
:101C2800F40E435C010E4458D8A004D0010E446E53
:101C3800F30E436E43C021F044C022F0E9EC11F0EA
:101C4800040E0001626F3E0EE82EFED7622FFCD70D
:101C5800120080BA1200FF0E4324436EFF0E442088
:101C6800446E445008E1020E435CD8B004D0000E24
:101C7800446E020E436E43C021F044C022F0E9ECEA
:101C880011F0040E0001626F3E0EE82EFED7622F9F
:101C9800FCD71200010E316412D0000E316E8BA2F7
:101CA80002D0010E01D0000EFF0A0001AA6F000148
:101CB800AA478B500001AA19FD0BAA198B6E8B84B9
:101CC80081BA04D00001AA6BAA2B02D00001AA6B2A
:101CD8008B500001AA19FE0BAA198B6E81B804D08B
:101CE8000001AA6BAA2B02D00001AA6B8B5000013D
:101CF800AA19FE0BAA198B6E3550D8B41200A9EC9C
:101D080012F0440AD8A4120076EC09F012002B5005
:101D1800D8B418D0000E2B6E140E466412D03204BC
:101D2800D8A40DD08BA002D0010E01D0000EFF0A5E
:101D3800146E8B501418FE0B14188B6E03D08B8006
:101D480001D08B903150D8B41200000E316E0B0EBA
:101D580046600ED08BA202D0010E01D0000EFF0A01
:101D6800146E14468B501418FD0B14188B6E120049
:101D7800150E466002D08B8212008B92120081B839
:101D880008D0010E2C6EF90E2D641200FA0E2D6E7D
:101D98001200000E2C6E020E2D6001D01FD0140E02
:101DA8002D6012D04650FEEC13F02950D8A406D06E
:101DB800010E296E010EECEC13F010D0000E296E06
:101DC800000EECEC13F00AD03204D8A404D0000EB4
:101DD800326E8B9403D0010E326E8B84000E2D6E02
:101DE80012001F6E000E226E1DC020F01EC021F0D2
:101DF800000E226E21D0200E0001606F000E00013F
:101E0800616F020E0001626F1FC063F00001646B16
:101E1800470E0001656F000E0001666FF2EC0FF0CF
:101E2800020E4718D8B4FCD74750D8B41200190E80
:101E38002218D8B41200222A4704D8B41200DBD7DB
:101E480000016E6F000E00016F6F000E0001706FD1
:101E58006EC06FF000016F51010D630EF324F66E32
:101E68007A0EF420F76E0800F5CF70F0520E0001DC
:101E7800606F7F0E0001616F000170510001626F99
:101E8800636B62BF63078DEC00F0410E1D6E70C07E
:101E98001EF0180EF5EC0EF01200000E1A6E000E71
:101EA800196E16501710D8B41CD0010E186E04D035
:101EB800D89016361736182A17AEFAD7D89019368A
:101EC8001A361650145C17501558D8A005D016505D
:101ED800145E1750155A1980D89017321632182EDA
:101EE800EDD719C014F01AC015F01200000E1F6EBD
:101EF800000E1E6E04D0194A1A2A1E4A1F2A19C03B
:101F0800D9FF1AC0DAFFDF50D8B413D01BC014F0C1
:101F18001CC015F019C0D9FF1AC0DAFFDF501D6EBA
:101F28001D50166E176A74EC12F014501510D8A4D0
:101F3800E2D71EC019F01FC01AF01200000E1F6E63
:101F4800000E1E6E04D0194A1A2A1E4A1F2A19C0EA
:101F5800D9FF1AC0DAFFDF50D8B413D01BC014F071
:101F68001CC015F019C0D9FF1AC0DAFFDF501D6E6A
:101F78001D50166E176A74EC12F014501510D8B470
:101F8800E2D71EC019F01FC01AF0120019C01BF0CA
:101F98001AC01CF0D8901B361C3614C0D9FF15C0C7
:101FA800DAFF1BC0DEFF1CC0DDFF14C0D9FF15C05F
:101FB800DAFF000EDB8020EE02F01450D92615500F
:101FC800DA2218C0DFFF20EE03F01450D92615508E
:101FD800DA2216C0DEFF17C0DDFF12000001AFB124
:101FE8001CD0C70E146E010E156E60C016F061C0CD
:101FF80017F062C018F063C019F064C01AF0CBEC97
:1020080010F0C70E146E010E156E65C016F066C08E
:1020180017F0010ECFEC0BF0120065C0D9FF66C0B7
:10202800DAFF010EDF6E12000001AFB11CD0C20E44
:10203800146E010E156E60C016F061C017F062C014
:1020480018F063C019F064C01AF0CAEC0FF0C20EA1
:10205800146E010E156E65C016F066C017F0010EFD
:10206800CFEC0BF0120065C0D9FF66C0DAFF010E95
:10207800DF6E120080B20BD0000E2A6E640E46602E
:102088001200690E466E4650FEEC13F0120080A254
:102098000AD0640E466407D067EC14F0466E4650CA
:1020A800FEEC13F01200770E2A641200000E2A6E5E
:1020B80067EC14F0466E4650FEEC13F0120004D0A4
:1020C800144A152A164A172A14C0D9FF15C0DAFF70
:1020D800DF50186E16C0F6FF17C0F7FF0800F5505E
:1020E80000081824196E1950D8A407D014C0D9FFB5
:1020F80015C0DAFFDF50D8A4E3D71950146E156A5B
:1021080014BE15061200F090F18A000E146E000E2F
:10211800156EF5EC14F0F092F188000E146E000EB6
:10212800156EF0EC14F0F292F18C000E146E000EA5
:10213800156EFAEC14F0F094F1962E0E146E2A0E29
:10214800156EEBEC14F0F08A120014C018F015C0EC
:1021580019F004D0184A192A164A172A16C0F6FF89
:1021680017C0F7FFF86A18C0D9FF19C0DAFF0E0EBA
:10217800F76403D00800F55005D0F6CFE9FFF7CF94
:10218800EAFFEF50DF6EDF50D8B41200E3D719C072
:102198001BF01AC01CF0D8901B361C3614C0D9FF8F
:1021A80015C0DAFF1BC0DEFF1CC0DDFF20EE02F009
:1021B8001450D9261550DA2218C0DFFF20EE03F09C
:1021C8001450D9261550DA2216C0DEFF17C0DDFFDD
:1021D8001200E7C11AF0E8C11BF02F04D8B41200AE
:1021E8001A0E156E000E166E020E176EC3EC12F064
:1021F800040E196E3E0EE82EFED7192EFCD73A5063
:10220800D8B412008FEC12F0650AD8A41200010E9F
:102218002F6E12001D501E10D8B418D0010E1F6E5C
:1022280004D0D8901D361E361F2A1EAEFAD71D5070
:102238001B5C1E501C58D8A004D01D501B5E1E509D
:102248001C5AD8901E321D321F2EF1D71BC01BF00E
:102258001CC01CF01200036EC584000120EE03F0C0
:10226800B251D926B351DA22DE50DE10D8B411D0DB
:10227800000120EE03F0B251D926B351DA22DECFA5
:1022880001F0DDCF02F001C0D9FF02C0DAFF03C0C0
:10229800DFFF000E3F6E1200000E0001716F000E8E
:1022A8000001726F2804D8A41200305000082724B7
:1022B8000001716F000171510FEC13F00001726F92
:1022C80000017251455CD8B0120027C030F0275089
:1022D80024EC0FF01200146E0101F651D8B4FCD7AB
:1022E8009DB803D014C0ADFF13D09D983850010D90
:1022F800280EF324D96E010EF420DA6E14C0DFFF25
:10230800382A070E386402D0000E386E0101F6072D
:102318009D881200146E0101F751D8B4FCD7A3B8F8
:1023280003D014C079FF13D0A3983D50010D380E87
:10233800F324D96E010EF420DA6E14C0DFFF3D2AB3
:10234800070E3D6402D0000E3D6E0101F707A38819
:102358001200300EB16E000EB06EC20EB36EF70EE4
:10236800B26EB250B3CF16F0176A16C017F0166ADD
:1023780016104A6E17504B6EA192A082700E146E02
:10238800290E156EE1EC14F00EEC15F01200040E97
:10239800CD6E000EAA6ECF0ECF6E2C0ECE6ECE5026
:1023A800CFCF16F0176A16C017F0166A1610486EC7
:1023B8001750496E9E909D80820E146E290E156EE0
:1023C800E6EC14F012EC15F0120021C060F022C007
:1023D80061F00001D890613360330001D890613317
:1023E800603300016051BC6E21C060F0030E000133
:1023F80060170001603BF00E6017BB50CF0B000167
:102408006011BB6E1200CC0E0001AD6F010E000111
:10241800AE6FCC0E0001AB6F010E0001AC6F000176
:10242800AF830001AF91000E0001B16F000EC76EBF
:10243800280EC66E030EC86E9E969D86120014EC7A
:1024480015F057EC13F0AFEC14F04CEC14F010EC62
:1024580014F0ADEC11F0A5EC14F0CBEC11F087EC16
:1024680010F059EC12F03EEC12F00F015B9D0F01D9
:102478005B9F1200A39AA398080EB96E900EA66EE1
:10248800260EBA6E0C0E7B6E000E7C6E000E3D6E34
:10249800000E3E6E080E0101F76F000E3B6E000E37
:1024A8003C6E000E3A6EA38A12009D9A9D98080E03
:1024B800A76E900EAB6E240EAC6E0C0EAF6E000EB7
:1024C8007D6E000E386E000E396E080E0101F66F33
:1024D800000E366E000E376E000E356E9D8A1200A5
:1024E80014C0D9FF15C0DAFF1650DE18D8A405D0DD
:1024F80014C014F015C015F0120014C0D9FF15C08F
:10250800DAFF144A152ADF50D8A4EAD7000E146E51
:10251800000E156E1200000E146E3A50D8B4FDD796
:102528003C50010D300EF324D96E010EF420DA6E02
:10253800DF50146E3C2A070E3C6402D0000E3C6E3D
:10254800A39A3A06A38A14501200000E146E35504E
:10255800D8B4FDD73750010D200EF324D96E010EE3
:10256800F420DA6EDF50146E372A070E376402D073
:10257800000E376E9D9A35069D8A14501200000E83
:10258800186E000E186E10D01850010DF350152457
:10259800D96EF4501620DA6EDF508EEC11F0A60ECC
:1025A800E82EFED700D0182A1750185CD8B01200B1
:1025B800EBD7080E0101F76113D03E50010D380E1C
:1025C800F324D96E010EF420DA6EDF50796E3E2ABC
:1025D800070E3E6402D0000E3E6E0101F72B12007A
:1025E800A3981200080E0101F66113D03950010DAD
:1025F800280EF324D96E010EF420DA6EDF50AD6E8A
:10260800392A070E396402D0000E396E0101F62B03
:1026180012009D981200186E18BE06D01850166E3B
:10262800176A16BE17060DD018C014F0156A14BE26
:102638001506141E151E144A152A14C016F015C0C6
:1026480017F016501200A1924B50B36E4AC0B2FF59
:102658000101F3510101F411D8B4120001D812009C
:1026680005000101FA6EF351FD6EF451FE6EF8504B
:10267800FF6EFA5012009E904950CF6E48C0CEFFB0
:102688000101F1510101F211D8B4120001D8120070
:1026980005000101FA6EF151FD6EF251FE6EF8501F
:1026A800FF6EFA501200000E896E000E8A6E000E40
:1026B8008B6EA30E926EBD0E936EB80E946E010EC5
:1026C8000F015D6F000E0F015C6FC00E0F015B6F95
:1026D800F19E1200D9C160F0DAC161F0DBC162F08D
:1026E800DCC163F022500001616F21C062F0600E0E
:1026F800156E000E166E040E176EC3EC12F0120063
:10270800D5C160F0D6C161F0D7C162F0D8C163F01D
:1027180022500001616F21C062F0600E156E000E3C
:10272800166E040E176EC3EC12F01200A6A202D0A9
:10273800A698A6883B50010D300EF324D96E010EE1
:10274800F420DA6E7ACFDFFF3B2A070E3B6402D013
:10275800000E3B6E3A2A1200ABA202D0AB98AB88AF
:102768003650010D200EF324D96E010EF420DA6ED6
:10277800AECFDFFF362A070E366402D0000E366E63
:10278800352A120014501602F3CF18F0F4CF19F0BE
:1027980014501702F350192615501602F350192633
:1027A80018C014F019C015F012000101EF51010111
:1027B800F011D8B4120001D8120005000101FA6E18
:1027C800EF51FD6EF051FE6EF850FF6EFA50120098
:1027D8001C6EDDC119F0DEC11AF0DFC11BF01CC090
:1027E8001AF0190E156E000E166E030E176EC3EC56
:1027F80012F012001C6EE0C119F0E1C11AF0E2C13A
:102808001BF01CC01AF0190E156E000E166E030E82
:10281800176EC3EC12F012001F0EBB6E000EBF6ED7
:10282800000E9C6E9C82800EBE6E3E0EBC6E000E2C
:10283800BD6E999012002E50D8A406D081A0120027
:10284800010E6FEC0BF0120081B01200000E6FEC5D
:102858000BF012000001676F000E0001686F67C07F
:102868001DF0360E88EC0CF00001686F000168510D
:102878001200166E000E156E3A0E166005D02F0E59
:10288800166402D0010E156E15C014F01430120033
:10289800010EC26E800EC16E390EC06E000EC46E7F
:1028A800000EC36E9D8C000E276E1200000E0001F4
:1028B800676F020E1D6E360E88EC0CF00001676F14
:1028C800000167511200000E0001676F040E1D6EB3
:1028D800360E88EC0CF00001676F0001675112009A
:1028E800156E15C014F014461446C2501418830B04
:1028F8001418C26EC280C2821200050E0001B427ED
:10290800000EB523402E03D0040E3F6E1200010EB8
:102918003F6E1200202C2D00580000515900005124
:102928004400514900514551200045519E9C04ECFA
:1029380015F001500008036E0304276E010E286E7F
:102948001200010ECA6E7C0ECB6E000ECC6E9E92EB
:1029580010EC15F01200300ED36E000ED26E000E81
:102968009B6E000E9A6E12002B2A312A2A2A3304F3
:10297800D8A412000001BA2B12002C04D8B42D2AB6
:102988000101F505D8A41200342A1200A9EC12F0AE
:10299800166E1650FFEC14F016501200F094F09AD0
:1029A800C1EC0DF0F08AD9EC13F012000001AFA3CE
:1029B80002D0010E1200000E120014C0F3F115C06F
:1029C800F4F1120014C0F1F115C0F2F1120014C0B4
:1029D800EFF115C0F0F1120014C0EDF115C0EEF1E1
:1029E800120014C0EBF115C0ECF1120014C0E9F1AB
:1029F80015C0EAF11200156E15506FEC11F01200B7
:102A0800C4CF01F0026A1200FC0A42E20501C800C4
:032A18000664024F
:102A1C00B1801200CA841200CD801200D09E120028
:062A2C001200120012006E
:107A620000C4C4C4C4C4C4C4C4C4C4C4C4C4C4C498
:107A7200C4C4C4C4C4C4C4C4C4C4C4C4C4C4C4C4C4
:107A8200C4C4C4C4C4C4C4C4C4C4C4C4C4C4C4C4B4
:107A9200C4C4C4C4C4C4C4C4C4C4C4C4C4C4C4C5A3
:107AA200C5C6C6C7C8C8C9C9CACBCBCCCCCDCDCE3A
:107AB200CFCFD0D0D1D2D2D3D3D4D5D5D6D6D7D892
:107AC200D8D9D9DADADBDBDCDCDDDDDEDEDFDFE0F4
:107AD200E0E1E1E2E2E3E3E4E4E5E6E6E7E7E8E861
:107AE200E9E9EAEAEAEBEBECECEDEDEEEEEEEFEFD4
:107AF200F0F0F1F1F1F2F2F3F3F4F4F5F5F5F6F654
:107B0200F7F7F7F8F8F8F8F9F9F9F9F9FAFAFAFAE9
:107B1200FBFBFBFBFBFCFCFCFCFDFDFDFDFDFEFE9F
:107B2200FEFEFFFFFFFFFFFFFF000000000000015D
:107B32000101010101010202020202020203030326
:107B420003030303040404040404040404040404F7
:107B520004050505050505050505050505050506D3
:107B62000601000A006400E803102701001000006B
:107B72000100100A436F6D6D616E642053796E745B
:107B82006178202873696E676C6520737061636524
:107B920073293A20436F6D6D616E64205265675F91
:107BA20041646472657373205265675F56616C75D8
:107BB20065000A436F6D6D616E64203D20577269E6
:107BC20074652C20526561642C20457869742C20E0
:107BD200456E61626C652C2044697361626C652C30
:107BE20020496E697469616C697A6500436F6D6DD5
:107BF200616E642053796E746178202873696E67B0
:107C02006C65207370616365206265747765656E6B
:107C1200293A2020426C7565204F4E0A0A004163C2
:107C22007475616C20766F6C74616765203D2028E5
:107C32004261747420566F6C74616765203C3C200D
:107C42003829202A203135362E32357556000A0A57
:107C52005468697320697320746865206D61696E68
:107C6200206D656E752E20204D616B65206120733D
:107C7200656C656374696F6E3A200A00436F6E74B7
:107C8200726F6C7320746865207374617465206F01
:107C9200662074686520426C756520616E642052AE
:107CA2006564204C4544730A000A0A536372656591
:107CB2006E204272696768746E65737320646562D0
:107CC200756720284578697420746F206578697417
:107CD20029000A5265675F41646472657373203DCF
:107CE20020646563696D616C207265676973746590
:107CF200722061646472657373000A5265675F562D
:107D0200616C7565203D20646563696D616C2072EC
:107D1200656769737465722076616C7565000A0A1D
:107D220049324320696E7465726661636520666FCD
:107D320072207468652054415332353231000A434F
:107D42006F6D6D616E64203D20526561642C20531D
:107D5200747265616D2C2045786974000A43616E06
:107D620020526561642050657263656E74206F7283
:107D720020566F6C74616765000A436F6D6D616EAA
:107D820064203D2057726974652C20526561642C11
:107D9200204578697400333A204D415831373034E8
:107DA2003820636F6D6D756E69636174696F6E0AF9
:107DB20000323A205441533235323120636F6D6DB7
:107DC200756E69636174696F6E0A000A0A5175699A
:107DD2007474696E67204170706C69636174696F55
:107DE2006E2E2E2E000A0A42617474657279204446
:107DF2006973706C6179206465627567000A0A496B
:107E02006E76616C69642073656C656374696F6E0C
:107E12002E2E2E000A496E76616C6964204C454410
:107E22002073656C656374696F6E000A0A52656738
:107E320069737465722044617461203D2030782535
:107E420078000A0A426174742050657263656E7428
:107E5200203D2025640A0A00363A20536372656584
:107E62006E204272696768746E6573730A000A0A4B
:107E72004261747420566F6C74616765203D2025E1
:107E8200640A000A416C6C6F77656420636F6D6DE4
:107E9200616E64733A2020000A49205B6261747447
:107EA2006572792070657263656E745D00353A2083
:107EB2004261747465727920446973706C61790AE5
:107EC200000A58205B7820706978656C206F6666BE
:107ED2007365745D000A59205B7920706978656C5E
:107EE200206F66667365745D000A0A41444320444C
:107EF20065627567206F7074696F6E73000A416CFA
:107F02006C6F7765642076616C7565733A2020002A
:107F120030313233343536373839616263646566FD
:107F2200000A436F6E76657273696F6E203D20257D
:107F32007500313A204C454420436F6E74726F6C69
:107F42000A000A50574D2056616C75653A20200090
:107F52000A566F6C756D65203D2025640053656C73
:107F6200656374696F6E3A2020000A0A436F6D6D73
:107F7200616E643A2000583A2020457869740A0AF2
:107F8200000A746F6B656E3D25730A000A44205B1C
:107F9200312C20305D000A746F6B656E3D257300D5
:107FA200343A204144430A0044697361626C6500BB
:107FB20050657263656E7400286E756C6C2900459D
:107FC2006E61626C650053747265616D005772690F
:107FD2007465000A4563686F000A45786974005247
:107FE20065616400426C7565000A0A0A00526564A4
:0D7FF200004F4E00440049005800590000A7
:020000040020DA
:08000000FFFFFFFFFFFFFFFF00
:020000040030CA
:0E00000015087F7CFF8991FF0FC00FE00F40B5
:00000001FF
