:0400000055EF00F0C8
:0600080034829DEF01F0BF
:100018003480D8CF10F0E8CF11F0E0CF12F0FACF4B
:1000280013F0FBCF14F0E9CF15F0EACF16F0E1CFCB
:1000380017F0E2CF18F0D9CF19F0DACF1AF0F3CFD2
:100048001BF0F4CF1CF0F6CF1DF0F7CF1EF0F8CF61
:100058001FF0F5CF20F004EF04F020C0F5FF1FC01B
:10006800F8FF1EC0F7FF1DC0F6FF1CC0F4FF1BC041
:10007800F3FF1AC0DAFF19C0D9FF18C0E2FF17C092
:10008800E1FF16C0EAFF15C0E9FF14C0FBFF13C06B
:10009800FAFF12C0E0FF11C0E8FF10C0D8FF34908B
:1000A800100056EF03F065C0F6FF66C0F7FF67C0A3
:1000B800F8FFA40E7F6E000E276E3CD02750010D6E
:1000C800090EF326000EF422600EF324D96E000EFA
:1000D800F420DA6EDF50F56EF85004E1800EF75C1C
:1000E800D8A005D0FE0E0001696F0A0E12000D009F
:1000F800F6503F0B3F0AD8B418D02750216E226A19
:10010800FF0E236EFF0E246E20EE61F0DECF25F089
:10011800DDCF26F0235025262450262221502518ED
:1001280008E122502618D8A404D00A009BEC03F05A
:100138000900272A2750216E226A00016151215C9B
:10014800000162512258D8A0B9D7010E0001696F89
:10015800000E006E000E016E0A0E1200ACA2FED751
:10016800A7EC03F004D0A7AE03D0A790A79EA78062
:10017800A7B0F9D7AECF2BF0000E2B6E090E2A6E62
:1001880024D093EC03F0296E2B50010D600EF3245C
:10019800D96E000EF420DA6E29C0DFFF2B2A040E78
:1001A8002B18D8A412D0020E00016019D8B40AD0B6
:1001B800050E00016019D8B405D0070E00016019BA
:1001C800D8A403D0000161512A262A502B5CD8A05C
:1001D800D8D707EC01F02A6E550EA1EC03F0000EFB
:1001E8002B6E0CD02B50010D600EF324D96E000E2F
:1001F800F420DA6EDF50A1EC03F02B2A2A502B5C96
:10020800D8B0ACD7EFD763C000F064C001F024D0F9
:1002180053EC01F01FD0A9EC02F01CD057EC00F011
:1002280019D015EC02F016D0FDEC02F013D04AEC10
:1002380002F010D0D3EC02F00DD0D9EC01F00AD0C6
:100248007DEC02F007D0010E306E090E03D00001DC
:1002580069690A0E286E21D000016051000AD8B4DD
:10026800D7D7010AD8B4D7D7030AD8B4D7D7010A41
:10027800D8B4D7D7070AD8B4D7D7010AD8B4D7D7AC
:10028800030AD8B4D7D7010AD8B4D7D70F0AD8B435
:10029800D7D7010AD8B4D7D7DAD728501200190E01
:1002A8000001696F000E00016A6F000E00016B6F9C
:1002B800010E00016C6F000E00016D6F000E000151
:1002C8006E6F3F0EF86EF768FE0EF66E7F8C0900B3
:1002D800F5CF6FF00900F5CF70F0000E0001716FD7
:1002E800000E0001726F400E0001736F400E000196
:1002F800746F300EF86E000EF76E000EF66E7F8C7F
:100308000C0E216E0F0E216401D011D0090021506E
:10031800010D090EF326000EF422600EF324D96EA7
:10032800000EF420DA6EF5CFDFFF212AEBD7190E85
:100338001200FACF02F0FBCF03F0E9CF04F0EACFC6
:1003480005F0E1CF06F0E2CF07F0D9CF08F0DACF19
:1003580009F0F3CF0AF0F4CF0BF0F6CF0CF0F7CF9B
:100368000DF0F8CF0EF0F5CF0FF00CEF04F00FC042
:10037800F5FF0EC0F8FF0DC0F7FF0CC0F6FF0BC06D
:10038800F4FF0AC0F3FF09C0DAFF08C0D9FF07C0AD
:10039800E2FF06C0E1FF05C0EAFF04C0E9FF03C0B1
:1003A800FBFF02C0FAFF3492110065C0F6FF66C079
:1003B800F7FF67C0F8FF100EF65C000EF758200E26
:1003C800F858D8A002D0C40E01D0840E7F6E000E5B
:1003D800236E13D02350010D090EF326000EF422CC
:1003E800600EF324D96E000EF420DA6EDF50F56E3D
:1003F8000C009BEC03F0F62A232A2350216E226A74
:1004080000016151215C000162512258D8A0E2D755
:10041800010E0001696F000E006E000E016E0A0EDB
:10042800120065C0F6FF66C0F7FF67C0F8FF000E50
:10043800226E000E216E17D0F85004E1800EF75C92
:10044800D8A005D0FE0E0001696F0A0E1200940EA6
:100458007F6E9BEC03F0400EF626000EF722000E8E
:10046800F822214A222A00016151215C00016251CF
:100478002258D8A0E1D7010E0001696F000E0001D3
:10048800636F000E0001646F0A0E120065C074FFEE
:1004980066C075FF040E7F6E000E236E1AD07FB201
:1004A800FED7000165512324746E7450D8B4752AA0
:1004B8002350010D090EF326000EF422600EF324DA
:1004C800D96E000EF420DA6EDF50736E9BEC03F0E9
:1004D800232A2350216E226A00016151215C000108
:1004E80062512258D8A0DBD7010E0001696F0A0EAD
:1004F800120065C0F6FF66C0F7FF67C0F8FF800E00
:100508007F6E000E2F6E000E2E6E000E226E000EF5
:10051800216E0CD00900F5502E26000E2F2209005E
:10052800F5502F26020E2126000E222200016151CD
:10053800215C000162512258D8A0ECD72EC069F086
:100548002F5000016A6F0B0E120065C0F6FF66C0DF
:10055800F7FF67C0F8FF800E7F6E000E236E10D085
:1005680009002350010D090EF326000EF422600E37
:10057800F324D96E000EF420DA6EF5CFDFFF232ABC
:100588002350216E226A00016151215C00016251F1
:100598002258D8A0E5D700016151090F120065C0A3
:1005A800F6FF66C0F7FF67C0F8FFC00E7F6E000E4B
:1005B800236E10D009002350010D090EF326000EFA
:1005C800F422600EF324D96E000EF420DA6EF5CF13
:1005D800DFFF232A2350216E226A00016151215C2A
:1005E800000162512258D8A0E5D700016151090FD6
:1005F800120065C074FF66C075FF000E7F6E000EA6
:10060800236E11D07F802350010D090EF326000EB2
:10061800F422600EF324D96E000EF420DA6E73CF44
:10062800DFFF742A232A2350216E226A00016151B8
:10063800215C000162512258D8A0E4D70001615121
:10064800090F1200000E216E2128D8B403D000F043
:10065800212AFAD781B802D0010E1200000EF66ED8
:10066800080EF76E000EF86E800E7F6E0900F528F2
:10067800D8A402D0010E1200000E1200000E896EDE
:10068800000E8A6E000E8B6EEF0E926E9368BD0E92
:10069800946E1F0E0F015D6F050E0F015C6F0F0149
:1006A8005B69120000EE60F0490EEE6AE806FDE1B3
:1006B80000EE2CF0080EEE6AE806FDE13490349264
:1006C800000EF86E0001ADEF03F08B8226EC03F00C
:1006D800E806D8B4B2EC00F0000EFC6E8B9200EF86
:1006E80004F01200080EA76E900EAB6E240EAC6ECE
:1006F800190EAF6E000E7D6E120042EC03F08AEC0C
:1007080003F076EC03F069EC03F01200300ED36EC0
:10071800000ED26E000E9B6E000E9A6E12009EAAFC
:10072800FED7ABA202D0AB9EAB8EAE50120000C07B
:100738007EFF01C07EFF7F821200216E9EA8FED739
:1007480021C0ADFF12003004D8A412008B92FF0024
:08075800120081EC03F0FFD751
:020000040020DA
:08000000FFFFFFFFFFFFFFFF00
:020000040030CA
:0E00000015087F7CFF8991FF0FC00FE00F40B5
:00000001FF
